:100000000C942A000C943F000C943F000C943F0089
:100010000C943F000C943F000C943F000C943F0064
:100020000C943F000C943F000C943F000C943F0054
:100030000C943F000C943F000C943F000C943F0044
:100040000C943F000C943F000C943F000C943F0034
:100050000C943F0011241FBECFE5D8E0DEBFCDBF1A
:1000600010E0A0E6B0E0E4EDF0E002C005900D92F3
:10007000A039B107D9F70E9441000C9468000C9494
:1000800000008FEF8ABB81BB8BBB12BA80E090E08F
:1000900061E070E04FEF877099279B01082E01C047
:1000A000220F0A94EAF7209522BBFC01EE0FFF1FF6
:1000B000E059FF4F20812BBBE3EFF1E03197F1F7DF
:1000C00000C0000001968830910529F742BBE3CFBC
:0400D000F894FFCFD2
:1000D4007E00FF00C300C300FF00FF00C300C30095
:1000E400FF000300FF00FF00C000FF00FF00FF004F
:1000F400FF00FF000300FF00FF00C000FF00FF003F
:00000001FF
