:100000000C942A000C9434000C9434000C943400AA
:100010000C9434000C9434000C9434000C94340090
:100020000C9434000C9434000C9434000C94340080
:100030000C9434000C9434000C9434000C94340070
:100040000C9434000C9434000C9434000C94340060
:100050000C94340011241FBECFE5D8E0DEBFCDBF25
:100060000E9436000C9458000C9400008CEF87BB63
:100070008FEF8ABB1BBA90E086B380FF0BC09F5FF7
:100080009BBB2FE33DE043E0215030404040E1F78F
:1000900000C0000081FFF0CF91509BBB8FE32DE0AB
:1000A00033E0815020403040E1F700C00000E4CF51
:0400B000F894FFCFF2
:00000001FF
